:020000040800F2
:108000000000022089830208AD190108BD1901088A
:10801000CD190108DD190108ED1901080000000063
:10802000000000000000000000000000FD19010831
:108030000D1A0108000000001D1A0108ED83020856
:10804000ED830208ED830208ED830208ED83020848
:10805000ED830208ED830208ED830208ED83020838
:10806000ED830208ED830208ED830208ED83020828
:10807000ED830208ED830208111501089D15010822
:10808000ED830208ED830208ED830208ED83020808
:10809000ED830208ED830208ED830208ED830208F8
:1080A000913201080D690108ED830208ED83020891
:1080B000F9150108ED8302081DD60008ED830208BA
:1080C000ED830208ED830208ED830208ED830208C8
:1080D000ED830208ED830208ED830208ED830208B8
:1080E00029C00108ED830208ED830208ED83020830
:1080F000ED830208ED830208ED830208ED83020898
:10810000ED830208117F0208FDC20108ED83020819
:10811000ED830208ED830208ED830208F99001085F
:10812000ED830208ED830208ED830208CD7F02088B
:10813000ED830208ED830208ED830208ED83020857
:10814000ED830208ED830208ED830208ED83020847
:10815000ED830208ED830208ED830208ED83020837
:10816000ED830208ED830208ED830208ED83020827
:10817000ED830208ED830208ED830208ED83020817
:10818000ED830208ED830208ED830208ED83020807
:10819000ED830208ED830208ED830208ED830208F7
:1081A000ED830208ED830208ED8302080000000061
:1081B00040F0BF6040F40030014BD860704700BF12
:1081C00000ED00E0C3785BB903785A0903F01F03A0
:1081D000012101FA03F32032154941F8223070479A
:1081E00010B4144BDA68D243C2F302224478C2F1CD
:1081F0000403DBB204FA03F3D9B20F2313418278EC
:1082000013400B431B01DBB2027802F1604202F51E
:10821000614282F800330378590903F01F030122F9
:1082200002FA03F3024A42F821305DF8044B70472A
:1082300000E100E000ED00E021F0604121F07F016D
:108240000843014B9860704700ED00E0044A136951
:1082500019B923EA00001061704718431061704794
:1082600000ED00E0044A136804280CBF43F0040347
:1082700023F004031360704710E000E010B5ADF583
:108280003F53002443F83C4C01214FF4807002F02E
:10829000A1F921464FF48070BDE8104002F09AB970
:1082A00010B4436823F0407222F480720B681343C9
:1082B0000A7943EA0223436084680A69CB681A4357
:1082C0008B681A43094B234013434A7943EA42031C
:1082D0008360C36A23F470020B7D013BDBB242EA88
:1082E0000353C3625DF8044B704700BFFDF7FFC046
:1082F00000230360037143718360C3600361012342
:108300000375704710B4084C6268084B134090E83E
:108310000600114382681143C2680A431343636035
:108320005DF8044B704700BF00230140E030FCFFC4
:108330000023036043608360C3607047836819B99A
:1083400023F001038360704743F0010383607047AB
:10835000436823F4400323F40073194341607047DA
:1083600041628262704700BF436823F01F031943D4
:1083700041607047054A536818B923F400035360FD
:10838000704743F400035360704700BF002301406F
:10839000054A536818B923F480035360704743F4C7
:1083A00080035360704700BF0023014070B4092967
:1083B0001ED9C668A1F10A0404EB44040725A540B0
:1083C00026EA050503FA04F42C43C460062A1CD9E6
:1083D0000C2A28D9C46A0D3A02EB82021F2393406B
:1083E00024EA030301FA02F21A43C26270BC704726
:1083F000066901EB41040725A54026EA050503FAB5
:1084000004F42C430461062AE2D8446B013A02EBDF
:1084100082021F23934024EA030301FA02F21A4363
:10842000426370BC7047046B073A02EB82021F2361
:10843000934024EA030301FA02F21A43026370BC78
:10844000704700BF836843F080438360704700BF7C
:108450008068C0F380707047836819B923F4806323
:108460008360704743F4806383607047836819B901
:1084700023F002038360704743F002038360704778
:10848000436823F46043013943EA41334360704752
:10849000436819B923F400634360704743F40063F1
:1084A00043607047C06C80B2704700BF014B1868D2
:1084B000704700BF08230140836819B923F4807313
:1084C0008360704743F4807383607047836819B991
:1084D00023F400738360704743F400738360704734
:1084E000054A536818B923F400535360704743F4A6
:1084F00000535360704700BF0023014070B4092946
:108500001BD8056901EB41060724B44025EA0404A1
:10851000B34023430361836B0232C3F30154121B44
:10852000D2B202EB82021F24944023EA040301FA30
:1085300002F21343836370BC7047C668A1F10A045A
:1085400004EB44040725A54026EA0505A3402B4378
:10855000C360E0E7836B23F44013013943EA01531E
:108560008363704782B0002301930190019B1944FB
:108570000191019B1A6002B0704700BF836823F429
:108580007023194381607047836823F440131943B3
:1085900081607047836843F480038360704700BF45
:1085A0008068C0F380507047436819B923F4806332
:1085B0004360704743F4806343607047436819B970
:1085C00023F480534360704743F480534360704703
:1085D00082B0002301930190019B2833194401913B
:1085E000019B186880B202B0704700BFC9B2012376
:1085F00003FA01F143681AB923EA010141607047A7
:1086000019434160704700BF0368194214BF01203D
:1086100000207047C9430160704700BF426800688E
:1086200010EA112007D0C9B2012303FA01F1114267
:1086300014BF1846002070476FEA1121016070478F
:1086400010B5ADF53F53002443F83C4C01214FF0E9
:10865000005001F0B1FF21464FF00050BDE810403E
:1086600001F0AABF30B40A4D2A6840F6FE73834079
:1086700022EA030391E8140014438A681443CA6889
:10868000224302FA00F01843286030BC704700BF54
:10869000007400400023036043608360C360704740
:1086A00041B908490B68012202FA00F023EA0000F0
:1086B0000860704703490B68012202FA00F0184372
:1086C000086070470074004049B909494B680009C7
:1086D000012202FA00F023EA0000486070470449D2
:1086E0004B680009012202FA00F018434860704705
:1086F00000740040054A536818B923F0030353601F
:10870000704743F003035360704700BF007400409C
:1087100032B9064A1368814023EA010111607047AB
:10872000024A136881401943116070470074004089
:1087300082B000230193054B0193019B0833184439
:108740000190019B196002B0704700BF00740040A7
:1087500082B000230193054B0193019B143318440D
:108760000190019B196002B0704700BF0074004087
:1087700008280CBF42EA012242EA0142014BC250E2
:10878000704700BF2074004082B000230193064B65
:108790000193019B2C3303EB90000190019B18681F
:1087A00080B202B0704700BF0074004049B9094967
:1087B0000B684FF4805202FA00F023EA00000860D0
:1087C000704704490B684FF4805202FA00F01843D6
:1087D000086070470074004032B9064A136881404F
:1087E00023EA010111607047024A1368814019436E
:1087F0001160704700740040034B5B6B814019426D
:1088000014BF012000207047007400408140014BDC
:108810005963704700740040054B1A6881405B6BD8
:1088200011EA030003D00A4214BF01200020704760
:10883000007400408140014B596370470074004050
:10884000036823F001030360002303604360836037
:10885000C3600361212343612A4B984236D02A4BDF
:10886000984237D0294B984239D0294B98423BD077
:10887000284B98423DD0284B98423ED0274B9842F7
:108880001BD0274B98421CD0264B98421ED0264B1B
:1088900098421FD0254B984221D0254B984223D097
:1088A000244B984225D0244B984226D0234B984203
:1088B00003D0234B984204D07047224A43F8942CAB
:1088C00070474FF03D5243F8AC2CF5E73D2243F89A
:1088D000082C70474FF4746243F8202C70474FF413
:1088E000741243F8382C70474FF0746243F8502CE0
:1088F0007047154A43F8642C7047144A43F87C2C9F
:10890000704700BF10600240286002404060024093
:10891000586002407060024088600240A0600240DF
:10892000B860024010640240286402404064024083
:10893000586402407064024088640240A0640240AF
:10894000B864024000003D203D000020400F0020A0
:1089500010B40268134B13400C68CA6814434A6988
:1089600014438A691443CA6914430A6A14434A6A5D
:1089700014438A6A14434A6B14438A6B2243134399
:108980000360436923F00702CC6A0B6B2343134354
:1089900043610B6943604B6883608B68C3605DF81B
:1089A000044B70473F801CF00023036043608360EA
:1089B000C360036143618361C36103624362836295
:1089C000C362036343638363704700BF036819B9DD
:1089D00023F001030360704743F001030360704715
:1089E000036819B923F400430360704743F400435C
:1089F00003607047036819B923F0200303607047D0
:108A000043F020030360704741607047406880B2C4
:108A1000704700BF036822B923F40023036001619B
:108A2000704743F40023036001617047036819B97C
:108A300023F480230360704743F48023036070476E
:108A40000AB9C16070470161704700BF0068C0F398
:108A5000C0407047006800F001007047406900F0B6
:108A60003800704710B40B4A0B4B0C4CA04294BF1B
:108A7000184610468B004CBF4368036821F0F02174
:108A800021F08211194214BF012000205DF8044B2F
:108A9000704700BF00640240006002400F64024063
:108AA00010B4094A094B0A4CA04294BF184610461C
:108AB00011F0005F21F0F02121F0821114BFC1609C
:108AC00081605DF8044B7047006402400060024022
:108AD0000F6402400B060CD54369AAB143F0800332
:108AE000436180290FD0036801F01E011943016022
:108AF0007047802907D0002AF5D1036801F01E01D4
:108B000023EA01010160704723F08003436180295B
:108B1000F3D1704710B4114A114B124CA04294BFCC
:108B20001C46144621F0F02323F0C31292B10068D2
:108B300000F01E0000EAD12289004CBF6068206866
:108B400023F08213184002D0101C18BF01205DF8DA
:108B5000044B7047406900F08002EDE7006402407A
:108B6000006002400F64024010B4094A094B0A4CED
:108B7000A04294BF1846104611F0005F21F0F0218A
:108B800021F0821114BFC16081605DF8044B704711
:108B900000640240006002400F640240044B002267
:108BA0001A605A609A60DA60024A5A61704700BFE0
:108BB000003C0140FFFF7F0083792BB330B41C4B96
:108BC0001C680568E9430C401C605A680A405A60FA
:108BD000027902F1804202F59E3211682943116048
:108BE00099680468E54329409960DA682A40DA60A8
:108BF0004279102A13D002F1804303F59E331A689C
:108C000014431C6030BC7047037903F1804303F5C3
:108C10009E331A68016822EA01021A6070479A6856
:108C200022439A60DA681443DC6030BC704700BFAE
:108C3000003C01400023036003710C2242718371E8
:108C4000704700BF024A136918431061704700BFA4
:108C5000003C0140034B5B69184214BF0120002017
:108C6000704700BF003C0140014B5861704700BF96
:108C7000003C0140034B5B69034214BF012000200C
:108C8000704700BF003C0140014B5861704700BF76
:108C9000003C0140C0B2014B18707047003C0240DC
:108CA000054A136818B923F480731360704743F4BE
:108CB00080731360704700BF003C0240054A136890
:108CC00018B923F400731360704743F40073136002
:108CD000704700BF003C0240054A136818B923F4EE
:108CE00080631360704743F480631360704700BF74
:108CF000003C0240024A136843F40063136070476B
:108D0000003C0240024A136843F4805313607047EA
:108D1000003C0240044B1A69002A04DA034A5A60F4
:108D200002F188325A607047003C024023016745D7
:108D3000024A136943F0004313617047003C02404C
:108D4000044B5A69D20704D5034A9A6002F14432AF
:108D50009A607047003C02403B2A1908024A536956
:108D600043F0010353617047003C0240034A13780B
:108D700003F07F0318431070704700BF173C024098
:108D8000044B1A7802F0EF021A701A781043187028
:108D9000704700BF143C0240044B1A7802F0F30203
:108DA0001A701A7810431870704700BF143C0240C4
:108DB000024B5869C0F34710704700BF003C0240A7
:108DC000014B188880B27047163C0240014B18884E
:108DD00080B270471A3C0240014B188880B270473D
:108DE000163C0240014B188880B270471A3C024082
:108DF000024B1878AA3818BF01207047153C024072
:108E0000024B187800F00C00704700BF143C024081
:108E100029B9054A136923EA000010617047024B23
:108E20001A69104318617047003C0240034BDB682D
:108E3000034214BF01200020704700BF003C0240E5
:108E4000014BD860704700BF003C02400E4BDA680F
:108E5000D20309D4DA68D10601D506207047DA6852
:108E6000D20503D50220704701207047DA6812F05E
:108E7000EF0F01D007207047DB6813F0020F14BF1B
:108E800008200920704700BF003C024082B009233F
:108E90008DF80730274BDA68D00334D4DA68D1066E
:108EA00021D506238DF807309DF80730012B15D109
:108EB000204A09E0D368D9061AD506238DF8073071
:108EC0009DF80730012B09D1D368D803F2D50123CF
:108ED0008DF807309DF80730012BF5D09DF807007D
:108EE000C0B202B07047DA68D20515D50223D9E7BF
:108EF000D368DB0501D50223E0E7D36813F0EF0F59
:108F000003D00723DAE70123CCE7D36813F0020F7D
:108F100014BF08230923D1E7DA6812F0EF0F01D05C
:108F20000723BFE7DB6813F0020F14BF08230923F0
:108F3000B8E700BF003C024070B50646ADF53F53B0
:108F4000002243F83C2C59B301292FD002290CBF31
:108F50004FF400744FF44074FFF798FF092824D1B0
:108F6000144D2B6923F440732B6129692143296136
:108F70002B6923F0F8032B612B6943F002031E4396
:108F80002E612B6943F480332B61FFF77FFF2B6940
:108F900023F002032B612B6923F0F8032B6170BDD2
:108FA0000C46FFF773FF0928DAD070BD4FF48074C8
:108FB000F7E700BF003C024038B50446ADF53F532B
:108FC000002243F83C2CFFF761FF3CB1012C08D094
:108FD000022C0CBF4FF400744FF44074092804D0E5
:108FE00038BD4FF480740928FAD10D4D2B6923F454
:108FF00040732B612B691C432C612B6943F40043A4
:1090000043F004032B612B6943F480332B61FFF79A
:109010003DFF2B6923F4004323F004032B6138BD8B
:10902000003C024038B50446ADF53F53002243F8FA
:109030003C2CFFF72BFF3CB1012C08D0022C0CBFBD
:109040004FF400744FF44074092804D038BD4FF435
:1090500080740928FAD10B4D2B6923F440732B61DE
:109060002B691C432C612B6943F004032B612B6992
:1090700043F480332B61FFF709FF2B6923F00403CE
:109080002B6138BD003C024038B50446ADF53F5376
:10909000002243F83C2CFFF7F9FE3CB1012C08D02C
:1090A000022C0CBF4FF400744FF44074092804D014
:1090B00038BD4FF480740928FAD10B4D2B6923F485
:1090C00040732B612B691C432C612B6943F40043D3
:1090D0002B612B6943F480332B61FFF7D7FE2B699B
:1090E00023F400432B6138BD003C0240F8B507462D
:1090F00014461D46ADF53F53002243F83C2CFFF7C4
:10910000C5FE092800D0F8BD0A4E336923F4407328
:109110003361336943F440733361336943F00103CE
:109120003361C7E90045FFF7B1FE336923F001035E
:109130003361F8BD003C024070B505460E46ADF502
:109140003F53002243F83C2CFFF7A0FE092800D033
:1091500070BD0A4C236923F440732361236943F4EF
:1091600000732361236943F0010323612E60FFF73D
:109170008DFE236923F00103236170BD003C024092
:1091800070B505460E46ADF53F53002243F83C2C22
:10919000FFF77CFE092800D070BD0A4C236923F438
:1091A00040732361236943F480732361236943F08F
:1091B000010323612E80FFF769FE236923F0010379
:1091C000236170BD003C024070B505460E46ADF50A
:1091D0003F53002243F83C2CFFF758FE092800D0EB
:1091E00070BD094C236923F4407323612369236113
:1091F000236943F0010323612E70FFF747FE2369C3
:1092000023F00103236170BD003C024038B50546E0
:109210000C46ADF53F53002243F83C2CFFF736FED9
:10922000092800D038BD064B18881CB9284380B2E5
:10923000188038BD80B220EA0500188038BD00BF14
:10924000163C024038B505460C46ADF53F530022AA
:1092500043F83C2CFFF71AFE092800D038BD064B16
:1092600018881CB9284380B2188038BD80B220EA23
:109270000500188038BD00BF1A3C024038B50546CD
:109280000C46ADF53F53002243F83C2CFFF7FEFDA2
:10929000092800D038BD064B188824B980B220EACE
:1092A0000500188038BD284380B2188038BD00BF43
:1092B000163C024038B505460C46ADF53F5300223A
:1092C00043F83C2CFFF7E2FD092800D038BD064BDF
:1092D000188824B980B220EA0500188038BD2843D8
:1092E00080B2188038BD00BF1A3C024010B5044659
:1092F000ADF53F53002243F83C2CFFF7C7FD09288A
:1093000004BF014B1C7010BD153C024070B50646F1
:109310000C461546ADF53F53002243F83C2CFFF7B1
:10932000B5FD092807D1044B197801F01F0131431D
:1093300029432143197070BD143C0240ADF53F53E1
:10934000002243F83C2C034A137843F002031370C5
:10935000FFF79CBD143C024070B143F2D2024FF0C3
:10936000204343F82020800000F120406FF070433C
:109370004360C0F80431704743F2DB024FF02043F2
:109380001A60F0E7F0B407688668856A416B436845
:1093900046EA0302C3681A4303691A4343691A433E
:1093A00083691A43C3691A43036A1A43436A13431E
:1093B0002B43C26A1A43036B13430B43BC0004F1F3
:1093C00020442360082E1FD0B1F5801F23D0816B6D
:1093D0000E690A688B691A434B6842EA03128B686C
:1093E00042EA0322CB6842EA03424B6942EA036342
:1093F00043EA06536360B5F5804F22D06FF07043A7
:10940000C4F80431F0BC7047236843F04003236084
:10941000B1F5801FDBD1002FD9D04FF020435A681F
:10942000196841F480111960196841F4807119605C
:10943000816B0E69771E22F4700242EA07525A606D
:10944000C7E7C26B116893690B43516843EA011384
:10945000916843EA0123116943EA0153526943EADF
:109460000263C4F80431F0BC704700BF10B400239D
:1094700003600222426083601022C2600361C36203
:1094800043618361C3614FF4805202624FF4005222
:109490004262836203634363816B0F220A604A6006
:1094A000FF248C60CA600A614A618B61C16B0A60EB
:1094B0004A608C60CA600A614A618B615DF8044B46
:1094C000704700BF800000F1204021B90268044BC2
:1094D000134003607047036843F001030360704763
:1094E000FEFF0F0010280CBF054B064B18221A6018
:1094F00040225A604FF0FC329A60DA60704700BF39
:10950000600000A0800000A030B44268836813436C
:1095100043F00803C2681A4303691343426943EAEC
:109520004223826943EA4232C1694C688B681B045A
:1095300043EA04230C682343CD6843EA0565046AC3
:109540006168A3681B0443EA012321680B43E168B7
:1095500043EA0163016810290CBF034903490A600B
:109560008D60CB6030BC7047600000A0800000A020
:109570001022002380E80C008260C3600361436115
:109580008361C269FC23136053609360D360026AF5
:10959000136053609360D360704700BF41B11028DF
:1095A0000CBF084A084A136843F00403136070476D
:1095B00010280CBF034A044A1168044B0B40136087
:1095C000704700BF600000A0800000A0FBFF0F00FC
:1095D00041B110280CBF084A084A136843F0400301
:1095E0001360704710280CBF034A044A1168044BEB
:1095F0000B401360704700BF600000A0800000A017
:10960000BFFF0F0010280CBF014B024B5869704779
:10961000600000A0800000A0054B18221A60002204
:109620005A604FF0FC329A60DA601A61704700BFEE
:10963000A00000A010B44268036843F0100343EA9E
:109640004223826843EA423314490B60C46863686A
:10965000A268120442EA032223681343E26843EA41
:1096600002638B6004696368A268120442EA032201
:1096700023681343E26843EA0263CB6040694368AE
:109680008268120442EA032203681343C26843EA71
:1096900002630B615DF8044B704700BFA00000A09F
:1096A0000023036043608360C268FC23136053603F
:1096B0009360D3600269136053609360D360426922
:1096C000136053609360D360704700BF054A20B9B0
:1096D0001168054B0B4013607047136843F0040397
:1096E00013607047A00000A0FBFF0F00800000F196
:1096F00020404FF43472C0F840216FF07042C0F83F
:109700004821034B00221A615A619A61704700BFD9
:10971000400100A070B4C569046A416A4268836868
:109720001A43C3681A4303691A4343691A43836996
:1097300013432B4323430B430268FAB9224E336091
:10974000846A60680138A568013D2D0245EA001071
:109750002368013B0343E168013943EA0130226990
:10976000013A40EA02416369013B41EA0352A369BD
:10977000013B42EA0363B36070BC70472C430C4367
:1097800011490C60920002F1204202F5A074C2F867
:109790004031856A6A68013AA8680138000240EAE7
:1097A00002122B68013B1A432B69013B42EA034337
:1097B000EA68501E6A69013A120542EA00328A607C
:1097C000A36070BC704700BF400100A0002202608F
:1097D000426082601023C3604021016180214161A9
:1097E0004FF400718161C26102624262826A136059
:1097F00053609360D360136153619361704700BFFE
:1098000090E80C001343C26843EA42228368013B9C
:1098100042EA4313014A1361704700BF400100A0B0
:10982000054B20B19869800800F0060070479869E0
:1098300000F00600704700BF400100A0024A5369D3
:1098400043EA400050617047400100A0024A13699A
:1098500043EA401010617047400100A0800000F111
:10986000204039B9D0F8402147F6FF531340C0F8E3
:1098700040317047D0F8403143F40073C0F84031B4
:10988000704700BF62B110281ED0B0F5807F2BD08A
:10989000B0F5805F1DD01A4A536919435161704772
:1098A00010280BD0B0F5807F18D0B0F5805F20D0A5
:1098B000134A536923EA010151617047114A536801
:1098C00023EA0101516070470E4A53681943516001
:1098D00070470D4A53681943516070470B4A5368EB
:1098E00023EA010151607047084A536819435160E7
:1098F0007047054A536823EA01015160704700BF71
:10990000400100A0600000A0A00000A0800000A016
:1099100010280FD0B0F5807F0FD0B0F5805F07BF63
:10992000074B5B68074B9B6931EA03030CBF0120BF
:1099300000207047044B5B68F6E7044B5B68F3E775
:10994000A00000A0400100A0600000A0800000A0D6
:1099500010280BD0B0F5807F0ED0B0F5805F11D00D
:109960000B4A536923EA010151617047094A536860
:1099700023EA010151607047074A536823EA010155
:1099800051607047054A536823EA010151607047EE
:10999000400100A0600000A0800000A0A00000A086
:1099A00010B410281CD0B0F5807F12D0B0F5805FC5
:1099B0001DD0104A5369946903EA010201280CD8AA
:1099C00004F0010010B1101C18BF01205DF8044B19
:1099D0007047094B5B6801EA030203EAD100F1E733
:1099E000064B5B6803EA010203EAD100EAE7044B95
:1099F0005B68F0E7400100A0800000A0600000A0CC
:109A0000A00000A010280BD0B0F5807F0ED0B0F5DC
:109A1000805F11D00B4A536943F0010353617047D3
:109A2000094A536823EAD10151607047074A5368D5
:109A300023EAD10151607047054A536823EAD101F6
:109A400051607047400100A0600000A0800000A0AD
:109A5000A00000A010B5ADF53F53002443F83C4CE6
:109A60004A4B98422AD04A4B984231D0494B9842AF
:109A700038D0494B98423FD0484B984246D0484B4B
:109A800098424DD0474B984254D0474B98425BD0B8
:109A9000464B984262D0464B98426BD0454B984219
:109AA00000D010BD01214FF4806000F05BFD00216B
:109AB0004FF48060BDE8104000F054BD012108461D
:109AC00000F050FD21460120BDE8104000F04ABDE5
:109AD0000121022000F046FD21460220BDE8104091
:109AE00000F040BD0121042000F03CFD214604208F
:109AF000BDE8104000F036BD0121082000F032FD25
:109B000021460820BDE8104000F02CBD01211020A6
:109B100000F028FD21461020BDE8104000F022BDD5
:109B20000121202000F01EFD21462020BDE810402C
:109B300000F018BD0121402000F014FD2146402016
:109B4000BDE8104000F00EBD0121802000F00AFDAC
:109B500021468020BDE8104000F004BD01214FF4F3
:109B6000807000F0FFFC21464FF48070BDE810408B
:109B700000F0F8BC01214FF4007000F0F3FC00216C
:109B80004FF40070BDE8104000F0ECBC0000024053
:109B90000004024000080240000C02400010024095
:109BA0000014024000180240001C02400020024045
:109BB00000240240002802402DE9F043D1F800E0E3
:109BC0000022134601274FF0030C03E00133023259
:109BD000102B25D007FA03F434EA0E05F6D10568F8
:109BE0000CFA02F6F64335400560D0F800800D7996
:109BF00005FA02F949EA0808C0F80080013D012D84
:109C000010D9C4680CFA02F524EA0504C460C568DA
:109C1000CC7994402C43C46001330232102BD9D14B
:109C2000BDE8F08385682E40866086684D79954052
:109C300035438560456825EA0404446045688C79AD
:109C40009C40A4B22C434460DBE700BF4FF6FF7397
:109C500003600023037143718371C371704700BFB8
:109C600082B04FF480330193019B0B430193019B1E
:109C7000C361C161019BC361C3690193C36901935E
:109C800002B070470369194214BF012000207047D9
:109C9000006980B2704700BF4369194214BF0120B8
:109CA00000207047406980B2704700BF0183704751
:109CB000418370470AB9418370470183704700BFF1
:109CC00041617047436959404161704710B401F0E8
:109CD00007039B00C90800EB8100046A0F2199402B
:109CE00024EA01010162016A9A400A4302625DF8B6
:109CF000044B704710B5ADF53F53002443F83C4C7E
:109D0000164B984212D0164B98421BD0154B9842D6
:109D100000D010BD01214FF4000000F04DFC2146A1
:109D20004FF40000BDE8104000F046BC01214FF4A4
:109D3000001000F041FC21464FF40010BDE8104037
:109D400000F03ABC01214FF4800000F035FC2146C0
:109D50004FF48000BDE8104000F02EBC00540040DD
:109D600000580040005C0040F0B585B004460D4648
:109D7000ADF53F53002243F83C2C868826F03F0681
:109D80003604360C684600F0F1FA029B2E4AA2FB1C
:109D90000312970CB8B20643A680218821F0010176
:109DA0000904090C21802A6828498A4222D85200D5
:109DB000B3FBF2F39BB2032B98BF04230130208442
:109DC000A38323889BB243F001032380238823F4D9
:109DD000816323F002031B041B0CA9886A890A43D0
:109DE00013439BB22380AA892B8913439BB22381FF
:109DF00005B0F0BDE8884BF6FF7188421DD002EB3C
:109E0000820202EB8202B3FBF2F39BB243F4804383
:109E1000C3F30B020AB943F0010343F400434FF4C8
:109E2000967202FB07F20A4981FB0201D217C2EBCC
:109E3000A112013292B22284C2E702EB4200B3FBCC
:109E4000F0F39BB2E4E700BF83DE1B43A086010072
:109E5000D34D621041F288330360002383804BF6B8
:109E6000FF72C280038143814FF480438381704736
:109E7000038829B923F001031B041B0C03807047DE
:109E80009BB243F001030380704700BF838C21B96C
:109E90009BB243F010038384704723F010031B042C
:109EA0001B0C8384704700BF838C9BB201F00F01B1
:109EB00023F00F030B438384704700BF038829B945
:109EC00023F480731B041B0C038070479BB243F484
:109ED00080730380704700BF038829B923F400739F
:109EE0001B041B0C038070479BB243F40073038078
:109EF000704700BF22B901F0FE0189B201827047AC
:109F000041F0010189B20182704700BF038829B97D
:109F100023F480631B041B0C038070479BB243F443
:109F200080630380704700BF83899BB201F0FE010C
:109F300023F0FE030B438381704700BF838929B957
:109F400023F001031B041B0C838170479BB243F079
:109F500001038381704700BF038829B923F04003C0
:109F60001B041B0C038070479BB243F0400303802B
:109F7000704700BF038819B9C3F30E03038070470D
:109F80006FEA43436FEA53439BB20380704700BFBD
:109F9000038829B123F080031B041B0C0380704746
:109FA0009BB243F080030380704700BF838BB1F501
:109FB000804F05D023F480431B041B0C8383704720
:109FC0009BB243F480438383704700BF0388B1F59D
:109FD000006F05D023F400631B041B0C0380704743
:109FE0009BB243F400630380704700BF0388B1F560
:109FF000005F05D023F400531B041B0C0380704743
:10A000009BB243F400530380704700BF038829B913
:10A0100023F010031B041B0C038070479BB243F01A
:10A0200010030380704700BF01827047008AC0B2EE
:10A03000704700BF038829B923F480531B041B0C0D
:10A04000038070479BB243F480530380704700BF86
:10A050000388B1F5006F05D023F400631B041B0CCB
:10A06000038070479BB243F400630380704700BFD6
:10A07000038829B923F020031B041B0C03807047BD
:10A080009BB243F020030380704700BF008BC0F3F6
:10A0900007207047838829B923F400631B041B0C35
:10A0A000838070479BB243F400638380704700BF96
:10A0B000838829B923F480531B041B0C83807047C9
:10A0C0009BB243F480538380704700BF82B000236B
:10A0D00001930190019B19440191019B188880B262
:10A0E00002B0704783889BB21AB923EA01018180CC
:10A0F0007047194381807047838A9BB2008B43EA83
:10A10000004321F07F4203EA0200401AB0FA80F0D7
:10A1100040097047838A9BB2008B43EA004020F0DD
:10A120007F40704782B000230093019301900B0F92
:10A13000009321F07F41009B53B1019B14330193A5
:10A14000019B1B68194214BF0120002002B0704718
:10A15000090C019B18330193F2E700BFC94389B290
:10A160008182704783889BB2808A80B2084006D083
:10A1700003F4E06313EA114314BF01200020704789
:10A18000C94389B2818270470E4B1A6842F00102BE
:10A190001A60002199601A6822F0A85222F4102255
:10A1A0001A60094A5A60094AC3F8842002F18062A1
:10A1B000C3F888201A6822F480221A60D960C3F894
:10A1C0008C1070470038024010300024003000200E
:10A1D000024B00221A701870704700BF023802400C
:10A1E00082B0002301930A4A02E0B3F5A04F08D0E1
:10A1F000136813F4003F019B03F101030193019BDA
:10A20000F3D0034B1868C0F3404002B0704700BF62
:10A2100000380240034A136823F0F80343EAC00001
:10A220001060704700380240014B1860704700BF53
:10A2300000004742064B00221A701A70012805D010
:10A24000042802D105221A707047704718707047B1
:10A2500070380240014B1860704700BF800E4742C3
:10A2600010B4019C40EA0460014341EA82125B0899
:10A27000013B42EA0340024B58605DF8044B7047D3
:10A2800000380240014B1860704700BF6000474231
:10A29000120742EA016141EA8010024BC3F88400D0
:10A2A000704700BF00380240014B1860704700BF84
:10A2B00068004742120742EA016141EA8010024BFE
:10A2C000C3F88800704700BF00380240014B186097
:10A2D000704700BF70004742014B1860704700BFD5
:10A2E0004C004742034A936823F0EC631943084348
:10A2F0009060704700380240034A936823F0784327
:10A30000194308439060704700380240034A93683D
:10A3100023F0030318439060704700BF00380240E9
:10A32000024B986800F00C00704700BF00380240F4
:10A33000034A936823F0F00318439060704700BF0E
:10A3400000380240034A936823F4E05318439060B6
:10A35000704700BF00380240034A936823F460430B
:10A3600043EAC000906070470038024010B41F49B3
:10A370008B6803F00C03042B1BD0082B1CD01C4B48
:10A3800003601A4A9468C4F303141A490C5DE3404D
:10A3900043609468C4F382240C5D23FA04F484605F
:10A3A0009268C2F342328A5CD340C3605DF8044BCA
:10A3B0007047114B0360E4E74C684B6803F03F02C1
:10A3C00014F4800F4C68C4F3881414BF0A49084978
:10A3D000B1FBF2F303FB04F2044B5B68C3F30143EC
:10A3E00001335B00B2FBF3F30360CAE700380240BD
:10A3F0000024F4000000002000127A0000F44073F2
:10A40000B3F5407F09D108498B6823F4F81320F095
:10A41000704222F4407213438B60034A136FC0F3FF
:10A420000B0018431067704700380240014B18605A
:10A43000704700BF3C0E4742014B1860704700BF99
:10A44000400E4742014B1860704700BF5C01474215
:10A45000044AD2F88C3023F01F0301380343C2F8BA
:10A460008C30704700380240054AD2F88C3023F413
:10A47000F853013843EA0023C2F88C30704700BF1C
:10A4800000380240044AD2F88C3023F440131843B9
:10A49000C2F88C00704700BF00380240044AD2F86E
:10A4A0008C3023F440031843C2F88C00704700BF7F
:10A4B00000380240044AD2F88C3023F44033184369
:10A4C000C2F88C00704700BF00380240014B186092
:10A4D000704700BFE011474229B9054A136B23EAD0
:10A4E000000010637047024B1A6B104318637047EB
:10A4F0000038024029B9054A536B23EA0000506333
:10A500007047024B5A6B1043586370470038024043
:10A5100029B9054A936B23EA000090637047024B08
:10A520009A6B1043986370470038024029B9054A76
:10A53000136C23EA000010647047024B1A6C10433E
:10A54000186470470038024029B9054A536C23EA61
:10A55000000050647047024B5A6C104358647047B7
:10A560000038024029B9054A136923EA0000106146
:10A570007047024B1A691043186170470038024057
:10A5800029B9054A536923EA000050617047024B1C
:10A590005A691043586170470038024029B9054A8A
:10A5A000936923EA000090617047024B9A69104357
:10A5B000986170470038024029B9054A136A23EAB6
:10A5C000000010627047024B1A6A1043186270470D
:10A5D0000038024029B9054A536A23EA0000506254
:10A5E0007047024B5A6A1043586270470038024065
:10A5F00029B9054A136D23EA000010657047024B24
:10A600001A6D1043186570470038024029B9054A91
:10A61000536D23EA000050657047024B5A6D10439A
:10A62000586570470038024029B9054A936D23EAFE
:10A63000000090657047024B9A6D10439865704713
:10A640000038024029B9054A136E23EA000010665B
:10A650007047024B1A6E104318667047003802406C
:10A6600029B9054A536E23EA000050667047024B31
:10A670005A6E1043586670470038024029B9054A9F
:10A68000137823EA000010707047024B1A781043C9
:10A69000187070470D3802404309012B0BD0022B74
:10A6A000094B0CBF1B6F5B6F00F01F0023FA00F01B
:10A6B00000F001007047044B1B6800F01F0023FAF4
:10A6C00000F000F00100704700380240024A536F6A
:10A6D00043F080735367704700380240034BDB68D8
:10A6E000184214BF01200020704700BF003802400C
:10A6F000014B1870704700BF0E38024010B5ADF521
:10A700003F53002443F83C4C01214FF40060FFF715
:10A7100061FF21464FF40060BDE81040FFF75ABFCB
:10A7200010B40B4C6268816843681943C3681943CD
:10A73000036819430369194322F4FD4323F07F039F
:10A740000B43027D134363605DF8044B704700BF09
:10A75000002C014000230375036043608360C360E5
:10A7600003617047014B1860704700BFA08025420D
:10A77000014B1860704700BF002C0140024B186865
:10A7800000F00300704700BF002C014010B40368C4
:10A79000094A9360D36823F4FF6323F007034468F6
:10A7A00081680C43C1680C43016921430B43D360AA
:10A7B0005DF8044B704700BF002C0140002303608C
:10A7C00043608360C3600361704700BF014B186939
:10A7D000C0B27047002C014082B000230193034BAC
:10A7E00003440193019B186802B07047142C014088
:10A7F00010B4036809494B6243688B62CB6A23F04B
:10A80000F7028468C3681C43036923434069034318
:10A810001343CB625DF8044B704700BF002C01402E
:10A820004FF0FF330360002343608360C360036124
:10A8300043617047014B186B704700BF002C01400B
:10A84000014BD3F880007047002C0140014BC3F846
:10A8500080007047002C0140014B986C704700BF8E
:10A86000002C0140014B1860704700BFA0852542B5
:10A87000014B1860704700BFA4852542014B18604A
:10A88000704700BFA8852542014B1860704700BF84
:10A89000AC852542014B1860704700BFAC81254252
:10A8A000014B1860704700BFB081254200F00100E5
:10A8B00080F00100014B1860704700BFB481254251
:10A8C000014B1860704700BFB8812542014B1860EA
:10A8D000704700BF8C85254229B9054AD36B23EA0E
:10A8E0000000D0637047024BDA6B1043D8637047A7
:10A8F000002C0140034B5B6B184214BF0120002069
:10A90000704700BF002C0140014B9863704700BFA7
:10A91000002C0140034B5B6B034214BF012000205D
:10A92000704700BF002C0140014B9863704700BF87
:10A93000002C014010B5ADF53F53002443F83C4CCA
:10A940002D4B98421BD02D4B984224D02C4B984233
:10A950002DD02C4B984236D02B4B98423FD02B4BCE
:10A96000984200D010BD01214FF40010FFF732FED5
:10A9700021464FF40010BDE81040FFF72BBE012127
:10A980004FF48050FFF726FE21464FF48050BDE87B
:10A990001040FFF71FBE01214FF48040FFF70CFE6F
:10A9A00021464FF48040BDE81040FFF705BE01216D
:10A9B0004FF40040FFF700FE21464FF40040BDE891
:10A9C0001040FFF7F9BD01214FF40050FFF702FEE0
:10A9D00021464FF40050BDE81040FFF7FBBD0121B8
:10A9E0004FF48010FFF7F6FD21464FF48010BDE8CC
:10A9F0001040FFF7EFBD00BF0030014000380040BD
:10AA0000003C00400034014000500140005401402F
:10AA100010B4038803F441540A884B8813438A888E
:10AA20001343CA8813430A8913434A8913438A8903
:10AA30001343CA89134323439BB20380838B23F4BC
:10AA400000631B041B0C83830B8A03825DF8044B99
:10AA5000704700BFF0B5838B23F47B6323F00F03B3
:10AA60001B041B0C838302230384868BB6B28B6882
:10AA70008F88022B4AD0002F0CBF4FF0200C4FF0D4
:10AA8000400C284A946824023BD4264DD5F88440D3
:10AA9000D5F884206D68C4F3881E05F03F04224D6C
:10AAA000B5FBF4F505FB0EF4C2F30272B4FBF2F44D
:10AAB000CD88B5F5007F2BD0B4FBFCF202EB82020F
:10AAC0005200B2FBF3F305339AB2184BA3FB0223F7
:10AAD000DB0803F001025B089C1EFD2C94BF43EAD7
:10AAE000022302232B439BB203840B881E4346F4AC
:10AAF00000664B8833438A8913439BB21F43878385
:10AB0000F0BD946824F400049460BEE7CD88E9E7C2
:10AB1000240A04EB84046400B4FBF3F305339AB213
:10AB2000D3E700BF0038024000127A00CDCCCCCC75
:10AB30000023038043808380C3800381438183811A
:10AB4000C38107230382704700230360436002220E
:10AB500082608381704700BF038829B923F04003D6
:10AB60001B041B0C038070479BB243F0400303801F
:10AB7000704700BF838B29B923F480631B041B0C2F
:10AB8000838370479BB243F480638383704700BF25
:10AB9000038823F400631B041B0C038003889BB20F
:10ABA00019430180704700BF0388B1F5804F05D07D
:10ABB00023F480431B041B0C038070479BB243F4B7
:10ABC00080430380704700BF4FF6FF6399420388BC
:10ABD00004D09BB243F480730380704723F48073E6
:10ABE0001B041B0C03807047838829B923F00403DE
:10ABF0001B041B0C838070479BB243F004038380CB
:10AC0000704700BF838829B923F010031B041B0C75
:10AC1000838070479BB243F010038380704700BF6E
:10AC200030B4838B23F47B6323F00F031B041B0CD2
:10AC3000838302230384828B92B20C8824F40074F1
:10AC4000A4B2002C0CBF4FF4807500254C88224321
:10AC500042F400628B8813438A8913439BB22B43CF
:10AC6000838330BC704700BF808980B2704700BFCB
:10AC700081817047038829B923F400531B041B0CFE
:10AC8000038070479BB243F400530380704700BFBA
:10AC900003889BB243F4805303807047012914BF9B
:10ACA000008B808A80B27047008A80B2704700BFF4
:10ACB00083889BB21AB923EA010181807047194346
:10ACC000818070470909012303FA01F189B2838861
:10ACD0009BB21AB923EA0101818070471943818030
:10ACE000704700BF0389194214BF0120002070473C
:10ACF000C94389B20181704710B483889CB203892B
:10AD00009BB201F00F00012202FA00F0184005D0BA
:10AD100009098A40144214BF012000205DF8044B49
:10AD2000704700BF01F00F01012303FA01F1C9438D
:10AD300089B20181704700BF10B5ADF53F530024C3
:10AD400043F83C4C01214FF48040FFF743FC21467F
:10AD50004FF48040BDE81040FFF73CBC014B186049
:10AD6000704700BF00380140014B1860704700BFBA
:10AD70002000274210B401F003039B0001F0FC0106
:10AD800001F1804101F59C318C680F229A4024EA40
:10AD900002028A608A689840104388605DF8044B1C
:10ADA000704700BF014B1860704700BFDC002742AE
:10ADB000014B1860704700BF00042742024B186A1D
:10ADC000C0F30020704700BF0038014010B5ADF55A
:10ADD0003F53002443F83C4C604B984235D0B0F1CF
:10ADE000804F3CD05E4B984243D05E4B98424AD055
:10ADF0005D4B984251D05D4B984258D05C4B984285
:10AE00005FD05C4B984266D05B4B98426DD05B4BF9
:10AE1000984276D05A4B98427FD05A4B984200F0D5
:10AE20008880594B984200F08E80584B984200D051
:10AE300010BD01214FF48070FFF7BEFB00214FF4DD
:10AE40008070BDE81040FFF7B7BB01210846FFF74F
:10AE5000C1FB21460120BDE81040FFF7BBBB01212B
:10AE60000846FFF7A9FB21460120BDE81040FFF787
:10AE7000A3BB01210220FFF79FFB21460220BDE872
:10AE80001040FFF799BB01210420FFF795FB2146F5
:10AE90000420BDE81040FFF78FBB01210820FFF719
:10AEA0008BFB21460820BDE81040FFF785BB012140
:10AEB0001020FFF781FB21461020BDE81040FFF76E
:10AEC0007BBB01212020FFF777FB21462020BDE836
:10AED0001040FFF771BB01210220FFF77BFB2146E9
:10AEE0000220BDE81040FFF775BB01214FF4803010
:10AEF000FFF770FB21464FF48030BDE81040FFF7AC
:10AF000069BB01214FF40030FFF764FB00214FF4CF
:10AF10000030BDE81040FFF75DBB01214FF48020F9
:10AF2000FFF758FB00214FF48020BDE81040FFF7E9
:10AF300051BB01214020FFF73FFB00214020BDE82D
:10AF40001040FFF739BB01218020FFF735FB0021BE
:10AF50008020BDE81040FFF72FBB00BF000001407C
:10AF60000004004000080040000C004000100040B9
:10AF70000014004000040140004001400044014032
:10AF80000048014000180040001C00400020004024
:10AF900003889BB2204A904212D002F58062904210
:10AFA0000ED0B0F1804F0BD0A2F58032904207D086
:10AFB00002F58062904203D002F58062904203D194
:10AFC00023F070034A881343144A90421BD002F5C1
:10AFD0008062904217D023F440739BB20A891343D6
:10AFE00003804B68C3620B8803850B4B984205D0E6
:10AFF0000B4B984202D00123838270478B7A0386E1
:10B0000001238382704703804B68C3620B880385EA
:10B0100001238382704700BF000001400010004000
:10B02000000401404FF0FF3343600023038003819D
:10B0300043808372704700BF01858282704700BFE2
:10B04000038823F070031B041B0C19430180704715
:10B0500041627047C1627047406A7047008D80B29C
:10B06000704700BF038829B923F002031B041B0C9F
:10B07000038070479BB243F002030380704700BF18
:10B08000038829B923F004031B041B0C03807047B9
:10B090009BB243F004030380704700BF038829B9C3
:10B0A00023F080031B041B0C038070479BB243F00A
:10B0B00080030380704700BF038823F008031B044C
:10B0C0001B0C038003889BB219430180704700BFAB
:10B0D000038823F440731B041B0C038003889BB27A
:10B0E00019430180704700BF038829B923F0010389
:10B0F0001B041B0C038070479BB243F001030380C9
:10B10000704700BF70B4038C23F001031B041B0CB9
:10B110000384038C8588ADB2028B22F07302120483
:10B12000120C0E88164323F002042404240C8B898D
:10B130004A88134323439BB20E4A90420AD002F539
:10B140008062904206D0858006838A6842630384C9
:10B1500070BC704723F00803CA89134323F004022C
:10B160008B88134325F440750C8A4A8A2243154381
:10B17000ADB2E8E70000014030B4038C23F01003C7
:10B180001B041B0C0384038C8588ADB2028B22F454
:10B19000E6421204120C0C8842EA042294B223F014
:10B1A00020031B041B0C8A8943EA02134A8843EAE2
:10B1B00002139BB2124A90420AD002F5806290427A
:10B1C00006D0858004838A688263038430BC70471C
:10B1D00023F080039BB2CA8943EA02124FF6BF7381
:10B1E00013408A8843EA02139BB225F440650A8A19
:10B1F00045EA82054A8A45EA8205ADB2E1E700BF29
:10B200000000014030B4038C23F480731B041B0C3A
:10B210000384038C8488A4B2828B22F0730212040C
:10B22000120C0D88154323F400731B041B0C8A8930
:10B2300043EA02234A8843EA02239BB2124A90421D
:10B240000AD002F58062904206D0848085838A68A5
:10B25000C263038430BC704723F400639BB2CA8985
:10B2600043EA02224FF6FF3313408A8843EA02235F
:10B270009BB224F440540A8A44EA02144A8A44EAFB
:10B280000214A4B2E1E700BF0000014030B4038C17
:10B2900023F480531B041B0C0384038C8488A4B206
:10B2A000828B22F4E6421204120C0D8842EA052237
:10B2B00092B223F400531B041B0C8D8943EA05331F
:10B2C0004D8843EA05339BB20A4DA8420AD005F5E2
:10B2D0008065A84206D0848082838A6802640384E1
:10B2E00030BC704724F480440D8A44EA8514A4B22B
:10B2F000F1E700BF0000014000230380438083800A
:10B3000083608381C38103824382704730B400F13C
:10B310001805038C9CB201238B4024EA03030384A9
:10B3200021F0080373B10439C1F34E01485948F6BE
:10B33000FF7303404B514B59120292B21A434A51C8
:10B3400030BC7047490848594FF68F7303404B5142
:10B350004B591A434A5130BC704700BF4163704794
:10B3600081637047C163704701647047038B23F0AA
:10B3700070031B041B0C194301837047038B23F4D8
:10B38000E0431B041B0C43EA012189B2018370478F
:10B39000838B23F070031B041B0C194381837047BC
:10B3A000838B23F4E0431B041B0C43EA012189B285
:10B3B00081837047038B23F008031B041B0C194384
:10B3C00001837047038B23F400631B041B0C43EAC7
:10B3D000012189B201837047838B23F008031B048A
:10B3E0001B0C194381837047838B23F400631B0478
:10B3F0001B0C43EA012189B281837047038B23F040
:10B4000004031B041B0C194301837047038B23F4B3
:10B4100080631B041B0C43EA012189B2018370473E
:10B42000838B23F004031B041B0C19438183704797
:10B43000838B23F480631B041B0C43EA012189B234
:10B4400081837047038B23F080031B041B0C19437B
:10B4500001837047038BC3F30E0343EA012189B2D2
:10B4600001837047838B23F080031B041B0C19435B
:10B4700081837047838BC3F30E0343EA012189B2B2
:10B4800081837047038C23F002031B041B0C1943B8
:10B4900001847047038C23F008031B041B0C194321
:10B4A00001847047038C23F020031B041B0C43EA28
:10B4B000011189B201847047038C23F080031B04BF
:10B4C0001B0C43EA011189B201847047038C23F4F9
:10B4D00000731B041B0C43EA012189B201847047ED
:10B4E000038C23F400631B041B0C43EA012189B283
:10B4F00001847047038C23F400531B041B0C43EAA4
:10B50000013189B20184704730B4048CA5B20124A2
:10B510008C4025EA04040484038C8A4013439BB2C4
:10B52000038430BC704700BF30B4048CA5B204243F
:10B530008C4025EA04040484038C8A4013439BB2A4
:10B54000038430BC704700BFF0B40B88002B32D0AE
:10B55000042B58D0082B00F084804E888F880B89EC
:10B56000028C22F480521204120C0284858B028C0D
:10B5700025F440742405240D44EA072444EA0334E6
:10B58000A4B222F400535B045B0C43EA06339BB283
:10B5900043F4805384830384C988828B22F44062FD
:10B5A0001204120C8283838B9BB243EA01239BB269
:10B5B0008383F0BC70474D888E880B89048C24F0FF
:10B5C00001042404240C0484028B92B2048C22F023
:10B5D000F30242EA03139BB2334324F00A0212043B
:10B5E000120C45F00104224303830284CA88038BB2
:10B5F00023F00C031B041B0C0383038B9BB213432C
:10B600000383F0BC70474D888E880F89048C24F02A
:10B6100010042404240C0484028B048CA4B222F4AD
:10B6200040731B051B0D43EA07339BB243EA062315
:10B630009BB224F0A00242EA051292B242F010023C
:10B6400003830284C988028B22F440621204120C24
:10B650000283038B9BB243EA01239BB20383F0BCBA
:10B6600070474D888E880A89048C24F480742404E1
:10B67000240C0484848BA4B2038C9BB224F0F304C6
:10B6800044EA021292B2324323F4206343EA0523D0
:10B690009BB243F4807382830384CA88838B23F034
:10B6A0000C031B041B0C8383838B9BB21343838388
:10B6B0007FE700BF00230380438001228280C38094
:10B6C00003817047F0B5B1F802E0BEF1000F14BF7E
:10B6D00000240224B1F804C0BCF1010F15BF4FF4DF
:10B6E00080764FF40076012502250B88002B4BD085
:10B6F0000E89028C22F010021204120C0284028BBA
:10B70000078CBFB222F440731B051B0D43EA0633BE
:10B710009BB243EA0C239BB227F0A00242EA0E122E
:10B7200092B242F0100203830284C988038B23F48F
:10B7300040631B041B0C0383038B9BB243EA01236E
:10B740009BB20383038C23F001031B041B0C0384B3
:10B75000028B92B2078CBFB222F0F30242EA0613C8
:10B760009BB22B4327F00A0242F0010214430383E9
:10B770000484038B23F00C031B041B0C0383038B37
:10B780009BB219430183F0BD0F89038C23F00103A1
:10B790001B041B0C0384058BADB2038C25F0F30551
:10B7A00045EA0715ADB24CEA050C23F00A031B0469
:10B7B0001B0C4EF001021343A0F818C00384CD887F
:10B7C000038B23F00C031B041B0C0383038B9BB222
:10B7D0002B430383038C23F010031B041B0C0384F3
:10B7E000028B018C89B222F440731B051B0D43EAC6
:10B7F00007339BB2334321F0A00242F0100242EA29
:10B80000041403830484038B23F440631B041B0C84
:10B810000383038B9BB243EA05239BB20383F0BDF2
:10B82000406B7047806B7047C06B7047006C70470F
:10B83000038B23F00C031B041B0C0383038B9BB2B1
:10B8400019430183704700BF038B23F440631B043B
:10B850001B0C0383038B9BB243EA012189B2018352
:10B86000704700BF838B23F00C031B041B0C8383E6
:10B87000838B9BB219438183704700BF838B23F472
:10B8800040631B041B0C8383838B9BB243EA01211F
:10B8900089B28183704700BF0A884B8813438A8826
:10B8A0001343CA8813430A8913434A8913438A8975
:10B8B00013439BB2A0F84430704700BF00230380BD
:10B8C00043808380C380038143818381704700BFAD
:10B8D000B0F8443021B9C3F30E03A0F844307047E8
:10B8E0006FEA43436FEA53439BB2A0F8443070477A
:10B8F000838829B923F004031B041B0C8380704741
:10B900009BB243F004038380704700BF838829B94A
:10B9100023F001031B041B0C838070479BB243F090
:10B9200001038380704700BF83899BB21AB923EA61
:10B93000010181817047194381817047818270477D
:10B94000038A194214BF012000207047C94389B2FD
:10B9500001827047038A828992B211EA030003D000
:10B96000114214BF01200020704700BFC94389B2B3
:10B97000018270470A43A0F84820704783899BB230
:10B980001AB923EA01018181704719438181704707
:10B99000838829B923F008031B041B0C838070479C
:10B9A0009BB243F008038380704700BF038923F0F4
:10B9B00007031B041B0C0381704700BF038923F09E
:10B9C00070031B041B0C1943018103899BB243F0D4
:10B9D00007030381704700BF30B4048C602924D072
:10B9E00024F001042404240C0484048BA4B2058CE8
:10B9F000ADB224F0F30444F0010444EA03139BB213
:10BA000025F00A0444F001042243038302840389DD
:10BA100023F070031B041B0C0B43038103899BB2AF
:10BA200043F00703038130BC704724F01004240462
:10BA3000240C0484048B058CADB224F440742405DA
:10BA4000240D44F4807444EA03339BB225F0A0042F
:10BA500044F0100444EA021292B203830284D6E74F
:10BA600010B4048942EA0323E4B223439BB219438E
:10BA70000181038923F077031B041B0C43F0770338
:10BA800003815DF8044B704710B4048942EA032334
:10BA9000E4B223439BB21943018103899BB243F46F
:10BAA000804303815DF8044B704700BF038923F096
:10BAB00070031B041B0C194301817047838823F01A
:10BAC00070031B041B0C838083889BB21943818005
:10BAD000704700BF038923F007031B041B0C03817D
:10BAE00003899BB219430181704700BF038923F08A
:10BAF00080031B041B0C038103899BB21943018142
:10BB0000704700BF10B40489E4B221430A4342EAFB
:10BB1000032399B201815DF8044B704770B4068924
:10BB2000048B058CADB226F007063604360C314383
:10BB300024F4407424F003042404240C44F480749A
:10BB400044F0010425F022052A4342EA03139DB282
:10BB500001810483058470BC704700BF838829B9C4
:10BB600023F080031B041B0C838070479BB243F0BF
:10BB700080038380704700BFA0F85010704700BF5B
:10BB80008096030800000020600000206000002074
:10BB90003089012082B0414AD2F8883043F47003E2
:10BBA000C2F888303E4B1A6842F001021A60002148
:10BBB00099601A6822F0847222F480321A60394A3D
:10BBC0005A601A6822F480221A60D96000910191AB
:10BBD0001A6842F480321A601A4603E0009BB3F5FB
:10BBE000A04F09D0136803F400330193009B013385
:10BBF0000093019B002BF1D0294B1B6813F40033F9
:10BC000018BF01230193019B012B14D0244A936890
:10BC100023F400039360244BC2F88430136843F08C
:10BC20008063136013681B01FCD54FF000621B4B4F
:10BC30009A6002B070471A4B1A6C42F080521A6434
:10BC40001A490A6842F440420A609A689A609A68FF
:10BC500042F400429A609A6842F4A0529A60144AF0
:10BC60005A601A6842F080721A601A460C4B1168CA
:10BC70008901FBD540F205610E4A11609A6822F0F5
:10BC800003029A609A6842F002029A601A46936828
:10BC900003F00C03082BFAD1B8E700BF00ED00E079
:10BCA0000038024010300024C043006000700040A3
:10BCB000105A4007003C024016498B6803F00C0301
:10BCC000042B24D0082B09D0134B124A9268C2F3DC
:10BCD000031212498A5CD3400B61704748684B6875
:10BCE00003F03F0210F4800F4868C0F3881014BFBF
:10BCF0000B490949B1FBF2F303FB00F2054B5B680A
:10BD0000C3F3014301335B00B2FBF3F3DDE7044B04
:10BD1000DBE700BF003802400024F40010000020E0
:10BD200000127A00931E222B24D8F0B40E46154F31
:10BD300001E01E46284690FBF2F5334605FB12044F
:10BD40003C4494F8234003F8014B002DF1D1002826
:10BD500014DB5A1E00201870914208D20B4614784A
:10BD60001D7802F8015903F8014B9A42F7D80846AA
:10BD7000F0BC704700230B7008467047B31C2D229F
:10BD80007270E6E7788E0308F0B5254F254E01E086
:10BD90001D46114686FB0132CB17C3EBA2026B1C7A
:10BDA0009E4602EB8204A1EB44043C4494F82340F9
:10BDB00003F8014C002AEBD100292BDB0EF1FF32F6
:10BDC00000218EF80010954201D309E0013311786B
:10BDD0002C7802F801491D4603F8011C9A42F5D857
:10BDE0004FF06043D3F8802ED20712D5D3F8003E2F
:10BDF000C340DB070CD5297851B1820002F16042C3
:10BE00001368002BFCD0117015F8011F0029F7D121
:10BE1000F0BDF0BD05F1020E2D226A70CEE700BF25
:10BE2000788E0308676666664FF06043D3F8802E0D
:10BE3000D20714D5D3F8003EC340DB070FD510B4AA
:10BE40000C7854B1820002F160421368002BFCD0E0
:10BE5000147011F8014F002CF7D15DF8044B7047B6
:10BE60004FF06043D3F8802ED2070BD5D3F8003EB5
:10BE7000C340DB0706D5800000F160400368002B5B
:10BE8000FCD00160704700BF1E4AD36843F0807346
:10BE9000D3601D4B08225A604FF48172C3F804230B
:10BEA0000022C3F8F02003F50053E0225A60174A3D
:10BEB0009A60174ADA604FF06043164AC3F8B02F11
:10BEC0001549C3F8801E0F21C3F8401E0121C3F895
:10BED000001E03F5832303F5F6631A60A3F57B6365
:10BEE00041F61E521A6044F26F000C4A10606F2037
:10BEF00090614FF00070D061D16141F61E121A605E
:10BF0000704700BFF0ED00E0000004E0FF1DE00618
:10BF10000300070055CEACC50F000100081004E077
:10BF2000044A136823F0010313600022024B1A60D5
:10BF3000704700BF000E00E0800E00E038B5ADF5A0
:10BF40003F53002443F83C4C0E4D21462846FCF755
:10BF5000F5F921462846FCF7AFFA21462846FCF7BA
:10BF6000B5FA21460848FCF731FD21464FF48070B0
:10BF7000FEF7EAFA21464FF48000BDE83840FEF7AC
:10BF8000ABBA00BF002001407064024038B5ADF587
:10BF90003F53002443F83C4C0E4D21462846FCF705
:10BFA000CDF921462846FCF787FA21462846FCF7BA
:10BFB0008DFA21460848FCF709FD21464FF48060C0
:10BFC000FEF7C2FA21464FF48000BDE83840FEF784
:10BFD00083BA00BF0022014010640240F0B59DB05A
:10BFE00006460C46ADF53F53002543F83C5C012165
:10BFF0004FF48000FEF770FA01214FF48070FEF7D5
:10C00000A3FA0D954F4B0E930F9610951194129520
:10C010004FF4806313934FF4006314934FF4005371
:10C0200015934FF4807316934FF48033179318953C
:10C03000012619961A951B95434F0DA93846FCF712
:10C0400087FC31463846FCF7C1FC03954FF440337A
:10C05000049305954FF47063069303A8FCF752F917
:10C0600007958DF820608DF8216009950A950B954C
:10C070008DF83040354C07A92046FCF711F93146C0
:10C080000720FEF729FA03278DF808708DF80B506A
:10C090001CADE02345F86C3D29462D48FDF78CFD8D
:10C0A000019729462B48FDF787FD3C23019329463C
:10C0B0002948FDF781FD0623324619462046FCF744
:10C0C00075F90623022207212046FCF76FF90623A3
:10C0D0003A460C212046FCF769F9062304220D217B
:10C0E0002046FCF763F9062307220E212046FCF7C1
:10C0F0005DF9062308220F212046FCF757F9062395
:10C10000052209212046FCF751F906231A46082189
:10C110002046FCF74BF90623092205212046FCF7AF
:10C1200045F931462046FCF7D1F931462046FCF767
:10C13000C3F931462046FCF701F92046FCF782F9A5
:10C140001DB0F0BD4C200140706402400020014051
:10C150000000024000040240000802402DE9F043C4
:10C160009DB006460D46ADF53F53002443F83C4CC8
:10C1700001214FF48000FEF7AFF901214FF48060F8
:10C18000FEF7E2F94FF080630D93494B0E930F9643
:10C190001094119512944FF4806313934FF400633D
:10C1A00014934FF4005315934FF480731693179420
:10C1B0001894012619961A941B943E4F0DA93846DF
:10C1C000FCF7C6FB31463846FCF700FC03940494A8
:10C1D0000594069403A8FCF795F807948DF8206061
:10C1E0008DF8216009940A940B948DF83050324DEB
:10C1F00007A92846FCF754F831462120FEF76CF9D0
:10C200004FF003098DF808908DF80B4007270DF1CA
:10C21000700848F86C7D41462848FDF7CDFC4FF486
:10C22000F863019341462648FDF7C6FC3B4632467B
:10C2300004212846FCF7BAF83B460222052128468D
:10C24000FCF7B4F823464A4608212846FCF7AEF826
:10C250002346042221462846FCF7A8F82346052257
:10C2600006212846FCF7A2F823460622394628462E
:10C27000FCF79CF823463A4631462846FCF796F8E8
:10C280003B46082202212846FCF790F83146284612
:10C29000FCF71CF931462846FCF70EF931462846D2
:10C2A000FCF74CF82846FCF7CDF81DB0BDE8F0834C
:10C2B0004C22014010640240002201400000024074
:10C2C000001402402DE9F04104460E46ADF53F53FF
:10C2D000002543F83C5C10F091FB2A46514901F5DA
:10C2E00080600CF0A9FA01224F4901F580600CF042
:10C2F000A3FA4E4B1A78BAB14D4B1B68B3F93040D4
:10C30000B3F9340006F1080306F581612A4623F8E3
:10C31000084C23F8062C23F8040C23F8022C0833CD
:10C320009942F4D1BDE8F081987828B3404B1B685E
:10C330001F6B5D6B06F1080304F1080206F58166C8
:10C3400032F9081C394401F30F0123F8081C32F9B3
:10C35000060C23F8060C32F9041C294401F30F01E2
:10C3600023F8041C32F9020C23F8020C08330832BB
:10C37000B342E5D1BDE8F0812E4A1278022A01D0FD
:10C38000BDE8F0815B7963B3294B1B68D3F830C0FB
:10C39000596B06F10802284C04F5007EA4F580676D
:10C3A000A4F5007506F5816654F8048F5EF8043F25
:10C3B0004344634403F30F0322F8083C22F8060CBD
:10C3C00057F8048F55F8043F43440B4403F30F031D
:10C3D00022F8043C22F8020C08329642E4D1BDE86F
:10C3E000F081134A1268176B556B06F10801124A67
:10C3F00002F500763446184652F8043F3B4403F3F6
:10C400000F0321F8083C21F8060C54F8043F2B4494
:10C4100003F30F0321F8043C21F8020C0831B24267
:10C42000EAD1ADE70000001000020010701A0020F1
:10C43000380000204C000020FC030010064B53F88D
:10C44000203003F5C002934204D2002143F8041BBC
:10C450009342FBD3704700BF1C8802082DE9F84FB8
:10C46000ADF53F54002744F83C7C52B399469046C2
:10C47000054643680E46BB46144CBA46A1698A0677
:10C48000FCD42A6893421AD0A7B1013712D0A6F87B
:10C4900000A04A460221284601F074FF6B6823F091
:10C4A00001036B600BF1010B0236D845E6D138462B
:10C4B000BDE8F88FB3F9003033800027E9E70127A2
:10C4C000E5E717463846BDE8F88F00BF400100A0F9
:10C4D0002DE9F041ADF53F54002544F83C5C12EBEA
:10C4E000420213D01F4606460D4601EB0208094CD6
:10C4F000A2699306FCD473681A7805F8012B3A46B2
:10C500000121304601F03EFF4545F1D10020BDE854
:10C51000F08100BF400100A02DE9F84F9846ADF52D
:10C520003F53002543F83C5C90E81800A34234BF19
:10C530004FF000094FF0010990F814A00AB3174614
:10C540000646A1F1040B144C5BF8042F1A60A16994
:10C550008B06FCD442460421304601F0F9FE013539
:10C560003368AF42F0D17268934234BF0023012395
:10C57000327D9244D14409EB030000F00100BDE894
:10C58000F88F52464B469244D14409EB030000F029
:10C590000100BDE8F88F00BF400100A02DE9F84F71
:10C5A0001746ADF53F52002642F83C6C90E8140067
:10C5B000A24234BF4FF000094FF0010990F814A0D7
:10C5C0004FB3984683460D46184CA9786B7843EADA
:10C5D00001231380A1698B06FCD4424602215846F0
:10C5E00001F0B6FE03360335B74202D9DBF800206E
:10C5F000EBE7DBF80030DBF80420934234BF002384
:10C6000001239BF814209244D14409EB030000F06D
:10C610000100BDE8F88F52464B469244D14409EBE5
:10C62000030000F00100BDE8F88F00BF400100A04A
:10C630002DE9F84F1746ADF53F52002642F83C6C05
:10C6400090E81400A24234BF4FF000094FF00109F6
:10C6500090F814A04FB3984683460D46184CE978DD
:10C66000AB7843EA01231380A1698B06FCD44246D0
:10C670000221584601F06CFE04360435B74202D957
:10C68000DBF80020EBE7DBF80030DBF80420934216
:10C6900034BF002301239BF814209244D14409EBBA
:10C6A000030000F00100BDE8F88F52464B4692446B
:10C6B000D14409EB030000F00100BDE8F88F00BF92
:10C6C000400100A02DE9F84F2DED028B1746ADF586
:10C6D0003F52002542F83C5C90E81400A24234BF6F
:10C6E0004FF000094FF0010990F814A0002F40D03E
:10C6F000984606468B469FED208A204CFBEC017A3B
:10C70000B7EE007AF4EEC77AF1EE10FA0FDB47F6D7
:10C71000FF731380A1698B06FCD442460221304688
:10C7200001F016FE0135AF4212D03268E6E7BFEEE7
:10C73000007AF4EEC77AF1EE10FA91BF4FF400439D
:10C7400067EE887AFDEEE77A17EE903A1380E1E71C
:10C7500033687268934234BF00230123327D9244D0
:10C76000D14409EB030000F00100BDEC028BBDE8F1
:10C77000F88F52464B46F2E700FEFF46400100A00C
:10C780002DE9F0471F46ADF53F53002443F83C4CDC
:10C7900090E81800A34234BF4FF000084FF00108A2
:10C7A00090F8149022B382460D468E18154C15F859
:10C7B000012B803A12021A80A2699306FCD43A46F1
:10C7C0000221504601F0C4FDDAF80030AE42EED14D
:10C7D000DAF80420934234BF002301239AF814208E
:10C7E0009144C84408EB030000F00100BDE8F08765
:10C7F0004A4643469144C84408EB030000F0010058
:10C80000BDE8F087400100A02DE9F84FADF53F5598
:10C81000002445F83C4C066826F001060660EAB1A3
:10C820009A4691460546A1F1020BA04627460D4CBB
:10C830003BF9023F3380A1698B06FCD452460221AA
:10C84000284601F085FD2E686B689E4208BF984619
:10C850000137B945ECD14046BDE8F88F90464046D7
:10C86000BDE8F88F400100A0F0B482B00021019132
:10C870004FF050401D4C4FF400774FF400661C4AB7
:10C8800011F4002514BF2683278393699B06FCD4EB
:10C8900055B3668320F8021B0131B0F1524FEFD13E
:10C8A000144C002111484FF480674FF48056104A11
:10C8B00011F4002514BF0683078393699B06FCD4FB
:10C8C00085B1468334F8025F8BB29D4202D0019B52
:10C8D000013301930131B1F1807FE9D1019802B0B8
:10C8E000F0BC70474783EDE76783D3E70000024061
:10C8F000400100A0FEFFFFCF00B583B0ADF53F5271
:10C90000002342F83C3C0193FFF7AEFF01901B4B24
:10C910004FF400621A834FF4805119834FF4007171
:10C9200019834FF4806119830199C80748BF5A835E
:10C93000019B990703D54FF40072104B5A83019B5A
:10C940005A0703D54FF480620C4B5A83019B1B0797
:10C9500003D54FF48052094B5A83019B0E2B08D804
:10C96000019B002BF9D1642004F0F0FE019B0E2BFB
:10C97000F6D9322004F072FFEFE700BF000002405A
:10C9800082B004291BD002290AD0082908D0062920
:10C990000AD0032917D0012918BF002002B0704720
:10C9A00020F0070002B070470B4BA3FB003080085B
:10C9B0000190019800EB4000400002B0704720F069
:10C9C000030002B07047044BA3FB00304008019005
:10C9D000019800EB4000E1E7ABAAAAAA021D0B1DDB
:10C9E000984238BF91420DD340EA01039B0709D119
:10C9F000043900F5966251F8043F40F8043B824246
:10CA0000F9D17047431E01F5966011F8012B03F828
:10CA1000012F8842F9D170472DE9F047092800F22B
:10CA2000DA8000F132054FF49663BC4C03FB0547F6
:10CA300000F1280603FB064203FB00F101F56A43FF
:10CA40006033234414F0030F40F0FE8001F53B41B6
:10CA50007C31214403F5966E51F8047F43F8047B42
:10CA60009E45F9D1AE498B5D4B5500F11E0E4FF43A
:10CA7000966505FB0E4305FB00F505F50C47A03751
:10CA8000274417F0030F0CBF4FF001094FF00009C6
:10CA900002F1040805F50C4C0CF1A40CA4449445D7
:10CAA00088BFB84500F20B81B9F1000F00F0078193
:10CAB00005F50C479C37994D3D4402F5966C55F8A9
:10CAC000047F42F8047B9445F9D111F80E208A5571
:10CAD00000F114074FF4966505FB074205FB00F5CE
:10CAE00005F5BB464036264416F0030F0CBF4FF049
:10CAF00001094FF0000903F1040805F5BB4C0CF1E6
:10CB0000440CA4449C4588BFB04500F2CD80B9F1E7
:10CB1000000F00F0C98005F5BB463C367F4D35441B
:10CB200003F5966C55F8046F43F8046B9C45F9D1F6
:10CB3000CB5D01F80E3000F10A064FF4966505FB57
:10CB4000064A05FB00F505F53B5E0EF1200EA644F6
:10CB50001EF0030F0CBF4FF001094FF0000902F166
:10CB6000040805F53B5C0CF1240CA444944588BFF3
:10CB7000F04500F28E80B9F1000F00F08A8005F5D3
:10CB80003B5E0EF11C0E654D754402F5966C55F832
:10CB9000043F42F8043B9445F9D18A5DCA55534697
:10CBA0004FF4966505FB00F5621904352C441D1DF4
:10CBB000AA4238BFA3425FD397075DD1043A03F579
:10CBC000966552F8044F43F8044B9D42F9D10B5C33
:10CBD0008B55BDE8F087132840F297801D2840F25E
:10CBE0008B8027287FD9312874D93C224C49531E89
:10CBF000DBB2002A14BF1C463B24E2B20B5D002BC3
:10CC0000F5D04FF4966606FB04F7444BFD1806FB7F
:10CC100000F633442A4606F1040C07F1040EB6452B
:10CC2000C8BFBC451BDC43EA0506B60717D1043B69
:10CC300005F5966653F8045F42F8045B9642F9D115
:10CC40000B5C0B55BDE8F087791E02F5966E134616
:10CC500013F8017B01F8017F9E45F9D102E76A1EB6
:10CC600003F5966613F8015B02F8015F9E42F9D165
:10CC70000B5C0B55BDE8F087013B02F5966512F899
:10CC8000014B03F8014F9542F9D10B5C8B55BDE880
:10CC9000F087551E0AF5966C524612F801EB05F81E
:10CCA00001EF9445F9D178E75D1E02F5966C1346C5
:10CCB00013F8016B05F8016F9C45F9D138E7551E53
:10CCC00003F5966C1A4612F8017B05F8017F94452E
:10CCD000F9D1FAE600F10A06104C4FF4966303FB13
:10CCE00006430F495CE700F114070C4C4FF49662C1
:10CCF00002FB07420A491EE700F11E0E074C4FF4E3
:10CD0000966303FB0E430649E2E600F12806034C56
:10CD10004FF4966202FB06420149A6E68C1C0020F5
:10CD200048020020F8B5ADF53F53002443F83C4CD1
:10CD30003B2801D9FF20F8BD0B4B1B5C002BF9D021
:10CD40000F460A4B4FF4966505FB003503E00134AE
:10CD500078350A2CEED0E6B23946284603F01AFCA4
:10CD60000028F4D03046F8BD480200208C1C00207A
:10CD70002DE9F84F06460F46ADF53F53002243F824
:10CD80003C2C0446DFF86890DFF868803B2C15D90E
:10CD9000651C3B2C28BF3B24E0B203E019F80430AB
:10CDA0003BB9651CECB23C2C28BF00248442F5D171
:10CDB0000024A642EAD1FF20BDE8F88F19F804301C
:10CDC000002BE5D04FF4966B0BFB048A651C0BFB24
:10CDD000058B03E00AF1780ADA45DAD03946504685
:10CDE00003F0D8FB0028F5D02046BDE8F88F00BF3F
:10CDF000480200208C1C002010B50C46ADF53F53B6
:10CE0000002243F83C2C092842D8DFE800F00B113F
:10CE1000171D23292F353B051F49204603F034FBFE
:10CE2000052010BD1D49204603F02EFB052010BD36
:10CE30001B49204603F028FB032010BD194920465A
:10CE400003F022FB062010BD1749204603F01CFB0F
:10CE5000062010BD1549204603F016FB052010BD25
:10CE60001349204603F010FB042010BD1149204651
:10CE700003F00AFB042010BD0F49204603F004FB19
:10CE8000072010BD0D49204603F0FEFA082010BD12
:10CE900000230B70184610BD088F0308C08E0308CE
:10CEA000C88E0308CC8E0308D48E0308DC8E0308DA
:10CEB000E48E0308EC8E0308F48E0308FC8E03084E
:10CEC00070B50D46ADF53F53002243F83C2CA0F160
:10CED0000A03592B14D8524CA4FB0034E408C4EBC9
:10CEE0004413C4EB830300EB4300C0B2092800F2F3
:10CEF0009180DFE800F08A82807876746C645C4C04
:10CF0000092800F28480DFE800F03C36302A241E35
:10CF100018120C054349284603F0B6FA0526304698
:10CF200070BD4149284603F0AFFA0826F7E73F49AC
:10CF3000284603F0A9FA0726F1E73D49284603F001
:10CF4000A3FA0426EBE73B49284603F09DFA0426A2
:10CF5000E5E73949284603F097FA0526DFE7374920
:10CF6000284603F091FA0626D9E73549284603F00A
:10CF70008BFA0626D3E73349284603F085FA0326C1
:10CF8000CDE73149284603F07FFA0526C7E7254952
:10CF9000284603F079FA0726062105232D22EA54B4
:10CFA00001222944204603F081FC304670BD1E4911
:10CFB000284603F069FA0A2609210823EEE71B49EF
:10CFC000284603F061FA092608210723E6E71849F5
:10CFD000284603F059FA062605210423DEE7154901
:10CFE000F6E71549D4E71549284603F04DFA082617
:10CFF00007210623D2E71249F6E71249284603F033
:10D0000043FA052604210323C8E70F49C0E7002699
:10D010000E7084E700230B7002260121BEE700BFDB
:10D02000CDCCCCCC088F0308FC8E0308F48E03080B
:10D03000EC8E0308E48E0308DC8E0308D48E03080C
:10D04000CC8E0308C88E0308C08E03082DE9F0417A
:10D0500084B08046ADF53F53002743F83C7C012562
:10D06000FEB2A6F10A03592B33D8624CA4FB063456
:10D07000E408C4EB4413C4EB830306EB4303DBB2C5
:10D08000092B00F2B180DFE803F06B635B534B4484
:10D090003D352E05584901A803F0F6F906210DF19A
:10D0A00009022D231370012201AB1944204603F01D
:10D0B000FDFB01A9404603F04BFA002862D13C2D4C
:10D0C00061D001370135EDB2FEB2A6F10A03592B4A
:10D0D000CBD9731E082B7DD8DFE803F077726D6320
:10D0E0005E68594A8100454901A803F0CDF909213C
:10D0F00003AAD6E7424901A803F0C6F908210DF1B9
:10D100000B02CEE73F4901A803F0BEF9052102AAB0
:10D11000C7E73D4901A803F0B7F9052102AAC0E716
:10D120003A4901A803F0B0F906210DF10902B8E768
:10D13000374901A803F0A8F907210DF10A02B0E769
:10D14000344901A803F0A0F907210DF10A02A8E76C
:10D15000314901A803F098F904210DF10702A0E775
:10D160002E4901A803F090F906210DF1090298E774
:10D17000224901A803F088F901A9404603F0E8F923
:10D1800000289ED03546284604B0BDE8F0811C49F1
:10D1900001A803F079F9EFE71B4901A803F074F93E
:10D1A000EAE71A4901A803F06FF9E5E7154901A874
:10D1B00003F06AF9E0E7164901A803F065F9DBE737
:10D1C000144901A803F060F9D6E7134901A803F058
:10D1D0005BF9D1E7114901A803F056F969E706495F
:10D1E00001A803F051F9C7E700238DF804300121AD
:10D1F00001AA56E7CDCCCCCC088F0308FC8E0308DF
:10D20000F48E0308EC8E0308E48E0308DC8E03081A
:10D21000D48E0308CC8E0308C88E0308C08E030882
:10D220000130C0B23B2888BF0020704702463B282F
:10D2300028BF3B22064901E00B5C43B90130C0B274
:10D240003C2828BF00209042F6D10020704770474C
:10D2500048020020054A01E0135C2BB90130C0B23E
:10D260003B28F9D9FF207047704700BF48020020D3
:10D2700002463B2828BF3B22074938B10138C0B2DB
:10D28000904206D00B5C002BF7D070473B209042B9
:10D29000F8D10020704700BF48020020FF280FD0BF
:10D2A00060B10138C3B21846074AD35C5BB928B1F4
:10D2B0000138C0B2135C002BF9D07047FF207047D3
:10D2C0003B231846F0E770474802002002463B28FF
:10D2D00028BF3B22064901E00B5C43B10130C0B2DC
:10D2E0003C2828BF00209042F6D1002070477047AC
:10D2F0004802002002463B2888BF3C20054938B13F
:10D30000431ED8B2824202D00B5C002BF7D070478C
:10D310003B20F7E74802002030B42D4A2D4B3C213A
:10D320000024012543E093F8780018B193F8EE004B
:10D33000012844D093F8F00018B193F86601012851
:10D340003DD093F8680118B193F8DE01012836D07A
:10D3500093F8E00118B193F8560201282FD093F802
:10D36000580218B193F8CE02012828D093F8D002C1
:10D3700018B193F84603012821D093F8480318B157
:10D3800093F8BE0301281AD093F8C00318B193F89C
:10D390003604012813D093F8380418B193F8AE047A
:10D3A00001280CD0013203F5966301390DD01470B9
:10D3B00018780028B7D093F876000128B3D11570FB
:10D3C000013203F596630139F1D130BC704700BFDB
:10D3D000480200208C1C00203B2805D8034B185C19
:10D3E000003018BF0120704700207047480200201D
:10D3F0000122014B1A547047480200200022014BC1
:10D400001A5470474802002010B5ADF53F53002074
:10D4100043F83C0C164B1B699B0705D4154B186948
:10D4200080F40040C0F3C0300DF034FA00221249FD
:10D430008B5C33B90132D2B23C2A17D03B2AF7D1E8
:10D440001A460E4C22702271134601E0C85C38B1B6
:10D450000133DBB23C2B28BF00239342F6D10023DB
:10D460002372074B01221A705A7010BD1A46DFE76B
:10D47000000802400000024048020020741B002007
:10D48000801B002001E00A38C0B20928FBD8704791
:10D49000024BA3FB0030C008704700BFCDCCCCCC02
:10D4A0000022014B1A6070479C0000200C490120AB
:10D4B00008600C4B00221A7048605A7088609A709D
:10D4C000C860DA7008611A7148615A7188619A718E
:10D4D000C861DA7108621A720222034B9A777047A8
:10D4E000D0040020C4040020801B002011F00103A0
:10D4F00003D1294A126890421CD111F0020315D0C1
:10D5000011F0040318D011F008031CD011F010031F
:10D5100020D011F0200324D011F0400328D011F0C6
:10D5200080032CD0CB0530D5012070471A4A5268B1
:10D530009042E5D018467047174A92689042F9D158
:10D5400011F00803E2D1144AD2689042F2D111F0EE
:10D550001003DED1104A12699042EBD111F0200382
:10D56000DAD10D4A52699042E4D111F04003D6D18C
:10D57000094A92699042DDD111F08003D2D1064A66
:10D58000D2699042D6D1CB05CED4034B1B6A181A70
:10D59000B0FA80F040097047D0040020CB0703D5D3
:10D5A0001D4B1B68984234D88A0703D51A4B5B6819
:10D5B00098422ED84B0703D5174B9B68984228D822
:10D5C0000A0703D5144BDB68984222D8CB0603D553
:10D5D000114B1B6998421CD88A0603D50E4B5B6918
:10D5E000984216D84B0603D50B4B9B69984210D82E
:10D5F0000A0603D5084BDB6998420AD8CB0506D545
:10D60000054B1B6A834234BF002001207047012074
:10D6100070470020704700BFD00400202DE9F04F74
:10D620002DED028B85B0ADF53F53002243F83C2C25
:10D6300001219248FEF78EF9002800F04182904BBC
:10D640001968904A126891421968A1EB020238BF2A
:10D6500002F1FF3200921B688A4A1360DFF860B261
:10D660009BF81E30884FDFF85C82884E0BF106096C
:10D67000002402F1040A9FED868AE5B26A1E072A99
:10D680005ED8DFE812F056004F00480041003A0033
:10D69000330008009F017F4A116981F40041C1F302
:10D6A000C0317D487D4A002914BF1146014636F835
:10D6B000022F41EA420189B23180B1F57F4F00F07B
:10D6C00086804FF6FF72914200F0A280B1F5604F64
:10D6D0003DD000224AF82420082D00F0F7800134C4
:10D6E000043708F1040809F10109C6E76C4A116919
:10D6F00081F00201C1F34001D3E76A4A116981F464
:10D700000071C1F34021CCE7664A116981F4806160
:10D71000C1F38021C5E7634A116981F48051C1F3E7
:10D720000031BEE75F4A116981F40051C1F3403115
:10D73000B7E75C4A116981F40061C1F3C021B0E729
:10D74000584A116981F48041C1F38031A9E7A000F2
:10D75000DFF874C15AF82420511CBDD000996FEA3B
:10D76000010E724580F023810A4440F80C204E4996
:10D770008A4200F220814D498A4240F26C813A6827
:10D780008A42A9D03960002BA6D1062DA4D13E4AE9
:10D79000D269012AA3D13C4A9268012A9FD13A4A10
:10D7A000D16801299BD11169012998D150690128BB
:10D7B00095D13F490979002900F0A88302218BF80F
:10D7C0002D1090614AF644422E49CA6187E7022231
:10D7D0003A600021374AA154002B7FF47AAF082D1C
:10D7E0003FF677AF01A252F825F000BF23DB000817
:10D7F00023DB0008A9DB0008A9DB0008D3D600085A
:10D8000007DC000825DC000847DB000867DB0008B0
:10D81000002B40F0C080386801282BD0254A135DCA
:10D82000002B40F0BB80072D00F2B880DFE815F038
:10D83000580258026D026D021402080031024302C0
:10D840001B4A1279002A00F0CB821B4A107838B1AB
:10D850001A480068D0ED0F7A77EE887AC0ED0F7A1B
:10D8600052783AB1154A1268D2ED107A77EE887A7A
:10D87000C2ED107A01223A6028E700BF000800409C
:10D88000201A002060000020D00400202200002088
:10D890006F12833A0000024001E0FFFF00E0FFFF4B
:10D8A000000802400018024010B102008858010030
:10D8B000701A0020C404002008360120380000201F
:10D8C000801B0020741B002064000020002B40F00F
:10D8D000A280A84C6378C3B9A74AA84B11689942A3
:10D8E00013D95168994210D9116999420DD95169DA
:10D8F00099420AD99169994207D9D2699A4204D9C1
:10D900009F4B1B78002B00F0A1812379002B40F066
:10D91000DC809948826845F221618A422BD9C5682A
:10D920008D4256D90168012953D14168012950D14E
:10D93000016901294DD1416901294AD18169012932
:10D9400047D1C169012944D1016A012941D16279D4
:10D95000012A0EBF8BF81D2001238BF81C30637148
:10D9600001228BF82E204FF0FF338649CB600B61EC
:10D97000814B9A60DA60804B596945F22163994284
:10D9800000F261810121804805B0BDEC028BBDE849
:10D99000F04FFDF7EBBF3B68012B02D0082C00F0E5
:10D9A000F08231889BF81E3001223A608EE66FF0DB
:10D9B000010240F80C20754A396891423FF48CAE60
:10D9C0003A6089E6724A116981F00801C1F3C00129
:10D9D00067E6694E736945F22164A342D2D9012DED
:10D9E00000F06C8245F221639D42CBD9012AC9D156
:10D9F000684B1B7A674A137101248BF8034001F0CE
:10DA00002BFC4FF0FF335F4A136193615A4BDC608C
:10DA10005C619BF81E30022BB4D1574B1B68012B65
:10DA2000B0D1554B5A68012AACD19A68012AA9D1C4
:10DA3000DA68012AA6D11A69012AA3D15A69012AF2
:10DA4000A0D19A69012A9DD1DB69012B9AD10023CB
:10DA50008BF81E3096E745F222618A427FF63CAE93
:10DA60003A688A423FF438AE3960002B7FF434AE16
:10DA7000012D00F07C81C0F0C481042D7FF42CAE18
:10DA80003D4A916901297FF42AAED16901297FF4C9
:10DA900026AE916801297FF422AED16801297FF476
:10DAA0001EAE116801297FF41AAE516801297FF476
:10DAB00016AE5269012A7FF412AE8BF80D200EE6E5
:10DAC00005B0BDEC028BBDE8F08F2B4A9369012BAA
:10DAD0007FF458AF1368012B7FF454AF5368012BC8
